:10086700750C00750D64750A00750B00C3E50B94D4
:1008770064E50A9400504BE50D250BF509E50C35A9
:100887000AF508750E00AF0E7E00C3EF9432EE64D2
:100897008094805020AC08AD09AE0AAF0B12080057
:1008A700AC0CAD0D120812EF250DF509EE350CF560
:1008B70008050E80D18509B0050BE50B7002050A06
:0408C70080AA80FE85
:0108CB00220A
:030000000208CC27
:0C08CC00787FE4F6D8FD75810E02086705
:10080000EF8DF0A4A8F0CF8CF0A428CE8DF0A42E0C
:02081000FE22C6
:10081200BC000BBE0029EF8DF084FFADF022E4CCCA
:10082200F875F008EF2FFFEE33FEEC33FCEE9DEC93
:10083200984005FCEE9DFE0FD5F0E9E4CEFD22EDD9
:10084200F8F5F0EE8420D21CFEADF075F008EF2F23
:10085200FFED33FD4007985006D5F0F222C398FD14
:050862000FD5F0EA22B1
:00000001FF
