:100AA000750B00750A007509007508007F007E004F
:100AB0007D807C3FAB0BAA0AA909A80812099850AF
:100AC00058AB0BAA0AA909A8087F007E007D807C8C
:100AD0003F120803A804A905AA06AB077F007E0001
:100AE0007D807C3F1208FB8F0F8E0E8D0D8C0CAF1E
:100AF0000FAE0EAD0DAC0C120A118FB0AF0BAE0ADB
:100B0000AD09AC087BCD7ACC79CC783D1208078F43
:0B0B10000B8E0A8D098C08809380FE7C
:010B1B0022B7
:10080000020A7DE86480F8E933E83360110460F09F
:10081000ED33EC337009E8FCE9FDEAFEEBFF22045E
:1008200060DED3EB9FEA9EE99DE8C2E78CF0C2F759
:1008300095F0400CE8CCF8E9CDF9EACEFAEBCFFB25
:10084000120A4885D0F05804700320D5B3E804702C
:10085000075002B2D5020A8792D5EC0460F7E4CCC7
:10086000C0E0C398F8603B94186008400DD0E0FBEE
:10087000020A5FE4FBFAC9FC8028E830E406E4C918
:10088000FBE4CAFCE830E305E4C9CACBFCE8540742
:100890006010F8C3E913F9EA13FAEB13FBEC13FC4D
:1008A000D8F130F52FC3E49CFCEF9BFFEE9AFEEDF0
:1008B00099FDD0E0FBEF4E4D4C701222DB03020A93
:1008C00084EC2CFCEF33FFEE33FEED33FDED30E72F
:1008D000EB020A5FEF2BFFEE3AFEED39FDD0E0FBB5
:1008E00050130BBB0003020A87ED13FDEE13FEEF5E
:0808F00013FFEC13FC020A5F88
:1008F800020A87EC5D046005E859047003020A7D6A
:10090800120A48580460F6EC4860F2EC7004FDFEE8
:10091800FF22C860DB2481C85009C39860025006D2
:10092800020A849850CAF582E9294B4A7005AB82BD
:10093800020A7375F0007C1A7880C3EF9BEE9AED7B
:1009480099400DC3EF9BFFEE9AFEED99FDE842F04A
:10095800DC23ACF0D0E0FFD0E0FED0E0FDAB82209D
:10096800E7101BEB60BAEC2CFCEF33FFEE33FEED27
:1009780033FD020A5FE803F830E705C0F075F000C0
:10098800EF2FFFEE33FEED33FD40B830E7C280AA0B
:1009980074F8CC6480CCC86480C8F58204604FC306
:1009A800EB9FF5F0EA9E42F0E99D42F0E89C45F0A5
:1009B800603C501DE5825FFFE582D313CB5BCBF42F
:1009C8002B5582FB50280ABA002409B90020088058
:1009D8001DE5825BFBE582D313CF5FCFF4C3132FF2
:1009E8005582FF50090EBE00050DBD00010CC3EB7A
:1009F8009FF5F0EA9E42F0E99D42F0E89C45F060E0
:090A080007CC4820E701B3EC2201
:100A1100EDD2E7CD33EC3392D524814006E4FFFEDD
:100A2100FDFC22FCE4CFCECDCC24E0501174FF803C
:100A3100EDC3CC13CCCD13CDCE13CECF13CF0470D9
:070A4100F030D5DE020A923D
:100A4800E9D2E7C933E833F892D5EDD2E7CD33ECF4
:070A580033FC5002B2D5226D
:100A5F00EC30E7100FBF000C0EBE00080DBD0004F8
:100A6F000BEB6014A2D5EB13FCED92E7FD2274FFA4
:100A7F00FCFDFEFF22E480F8A2D574FF13FC7D80FD
:030A8F00E480EF11
:03000000020B1CD4
:0C0B1C00787FE4F6D8FD75810F020AA076
:0E0A9200C3E49FFFE49EFEE49DFDE49CFC2275
:00000001FF
